:100000000C9446000C9465000C9465000C946500FB
:100010000C9465000C9465000C9465000C946500CC
:100020000C9465000C9465000C9465000C946500BC
:100030000C9465000C94DE000C9465000C94650033
:100040000C9465000C9465000C9465000C9465009C
:100050000C9465000C9465000C9465000C9465008C
:100060000C9465000C9465000C9465000C9465007C
:100070000C9465000C9465000C9465000C9465006C
:100080000C9465000C9465000C94650011241FBE4F
:10009000CFEFD0E4DEBFCDBF12E0A0E0B1E0EEE4F0
:1000A000F9E000E00BBF02C007900D92AA31B10742
:1000B000D9F722E0AAE1B2E001C01D92A732B2074F
:1000C000E1F70E94E3020C94A5040C940000CF9386
:1000D000DF9300D01F92CDB7DEB789837B836A831D
:1000E00089818A3031F48A819B81BC018DE00E9434
:1000F000670080EC90E0FC018081882F90E08072A6
:100100009927892BB1F386EC90E02981FC012083AB
:1001100080E090E00F900F900F90DF91CF910895C5
:10012000CF93DF93CDB7DEB781E080931A02000052
:10013000DF91CF910895CF93DF93CDB7DEB781E8FC
:1001400090E02BE0FC01208388E890E02DE730E090
:10015000FC01318320838FE690E022E0FC012083C4
:1001600084E890E0FC011182108280910E01909150
:100170000F01A0911001B091110180931B02909387
:100180001C02A0931D02B0931E028FE590E02FE5A4
:1001900030E0F90120812068FC0120830000DF911C
:1001A000CF910895CF93DF93CDB7DEB781E890E08C
:1001B000FC0110820000DF91CF9108951F920F92F1
:1001C00000905F000F92112400905B000F922F931C
:1001D0003F934F935F936F937F938F939F93AF93CF
:1001E000BF93EF93FF93CF93DF93CDB7DEB78091AB
:1001F0001B0290911C02A0911D02B0911E0201975A
:10020000A109B10980931B0290931C02A0931D02C7
:10021000B0931E0280911B0290911C02A0911D02BE
:10022000B0911E02892B8A2B8B2B91F40E94900097
:1002300080910E0190910F01A0911001B0911101D8
:1002400080931B0290931C02A0931D02B0931E0288
:100250000000DF91CF91FF91EF91BF91AF919F91FE
:100260008F917F916F915F914F913F912F910F905F
:1002700000925B000F9000925F000F901F90189506
:10028000CF93DF9300D000D0CDB7DEB769837A83F8
:100290008B839C8389819A81AB81BC8180930E0181
:1002A00090930F01A0931001B093110180910E0162
:1002B00090910F01A0911001B091110180931B0248
:1002C00090931C02A0931D02B0931E0200000F9099
:1002D0000F900F900F90DF91CF9108950F931F9380
:1002E000CF93DF9300D000D0CDB7DEB769837A8398
:1002F0008B839C838091210290912202A091230202
:10030000B09124029C01AD0169817A818B819C812D
:100310000E941103882309F477C020E030E0A9018E
:1003200069817A818B819C810E941103882351F419
:1003300081E990E021E930E0F90120812870FC0199
:10034000208309C081E990E021E930E0F9012081B2
:100350002360FC01208328E539E344E75FE36981FA
:100360007A818B819C810E941103882344F488E95F
:1003700090E02FEF3FEFFC013183208334C020E079
:100380003CE24BEF56E469817A818B819C810E942B
:100390003304181634F488E990E0FC0111821082CD
:1003A00022C008E910E020E030E040E053E4698139
:1003B0007A818B819C810E943804DC01CB019C01F5
:1003C000AD0160E074E284EF9AE40E941603DC0160
:1003D000CB01BC01CD010E948803DC01CB01019758
:1003E000F8019183808384E990E0FC0111821082FE
:1003F00089819A81AB81BC818093210290932202F2
:10040000A0932302B093240200000F900F900F904E
:100410000F90DF91CF911F910F910895CF93DF93AC
:10042000CDB7DEB780E990E020E4FC01208381E9CC
:1004300090E02BE0FC01208360E070E0CB010E94A3
:100440006E010000DF91CF910895CF93DF93CDB778
:10045000DEB780E990E0FC01108281E990E0FC01C8
:1004600010820000DF91CF910895CF93DF931F9208
:10047000CDB7DEB780E290E0FC0180818095877087
:10048000898380912502909126028130910581F027
:100490008130910530F082309105F9F00397D9F160
:1004A0004BC081E090E0909326028093250244C0E7
:1004B0008981813059F41092200210921F0282E04B
:1004C00090E0909326028093250236C081E090E070
:1004D00090932602809325022FC080911F02909155
:1004E0002002C7973CF482E090E09093260280932C
:1004F000250222C08981813039F483E090E0909315
:1005000026028093250218C081E090E09093260295
:100510008093250211C08981813039F483E090E015
:10052000909326028093250206C081E090E090938C
:1005300026028093250200008091250290912602D8
:100540008130910549F081309105A8F18230910503
:1005500049F0039751F132C060E070E0CB010E9496
:100560006E012CC080911F0290912002C7972CF53C
:1005700080911F0290912002880F991F880F991F68
:100580008E5E9E4FFC0180819181A281B381BC016E
:10059000CD010E946E0180911F0290912002019670
:1005A0009093200280931F0208C060E070E0CB01AE
:1005B0000E946E0103C0000001C0000000000F9007
:1005C000DF91CF910895CF93DF93CDB7DEB781E26E
:1005D00090E0FC01108282E290E02FEFFC0120838A
:1005E00084E290E02FEFFC01208385E290E0FC01A3
:1005F000108264E670E080E090E00E9440010E947A
:100600009B000E940E0210922602109225020E9468
:100610003502000080911A028823E1F310921A0239
:10062000F6CF0E94BE0308F481E008950E942A03D9
:100630000C94F9030E94F20358F00E94EB0340F07F
:1006400029F45F3F29F00C94E20351110C942D041E
:100650000C94E8030E940A0468F39923B1F355232C
:1006600091F3951B550BBB27AA27621773078407C5
:1006700038F09F5F5F4F220F331F441FAA1FA9F35B
:1006800035D00E2E3AF0E0E832D091505040E69549
:10069000001CCAF72BD0FE2F29D0660F771F881FAA
:1006A000BB1F261737074807AB07B0E809F0BB0B9D
:1006B000802DBF01FF2793585F4F3AF09E3F5105B1
:1006C00078F00C94E2030C942D045F3FE4F3983E21
:1006D000D4F3869577956795B795F7959F5FC9F79A
:1006E000880F911D9695879597F90895E1E0660F1B
:1006F000771F881FBB1F621773078407BA0720F094
:10070000621B730B840BBA0BEE1F88F7E0950895FC
:100710000E948F036894B1110C942D0408950E94D7
:10072000120488F09F5798F0B92F9927B751B0F06D
:10073000E1F0660F771F881F991F1AF0BA95C9F765
:1007400014C0B13091F00E942C04B1E008950C94D3
:100750002C04672F782F8827B85F39F0B93FCCF386
:10076000869577956795B395D9F73EF490958095E2
:10077000709561957F4F8F4F9F4F0895990F000897
:10078000550FAA0BE0E8FEEF16161706E807F90763
:10079000C0F012161306E407F50798F0621B730BFE
:1007A000840B950B39F40A2661F0232B242B252B7F
:1007B00021F408950A2609F4A140A6958FEF811D22
:1007C000811D089597F99F6780E870E060E00895C3
:1007D0009FEF80EC089500240A9416161706180659
:1007E0000906089500240A94121613061406050635
:1007F0000895092E0394000C11F4882352F0BB0FC6
:1008000040F4BF2B11F460FF04C06F5F7F4F8F4F28
:100810009F4F089557FD9058440F551F59F05F3F63
:1008200071F04795880F97FB991F61F09F3F79F012
:1008300087950895121613061406551FF2CF469594
:10084000F1DF08C0161617061806991FF1CF869516
:100850007105610508940895E894BB2766277727FA
:10086000CB0197F908950E94BE0308F48FEF089515
:100870000E944B040C94F9030E94EB0338F00E9491
:10088000F20320F0952311F00C94E2030C94E8039A
:1008900011240C942D040E940A0470F3959FC1F357
:1008A000950F50E0551F629FF001729FBB27F00D1E
:1008B000B11D639FAA27F00DB11DAA1F649F662773
:1008C000B00DA11D661F829F2227B00DA11D621FC2
:1008D000739FB00DA11D621F839FA00D611D221F7C
:1008E000749F3327A00D611D231F849F600D211D60
:1008F000822F762F6A2F11249F5750409AF0F1F0E3
:1009000088234AF0EE0FFF1FBB1F661F771F881F4B
:1009100091505040A9F79E3F510580F00C94E2039E
:100920000C942D045F3FE4F3983ED4F386957795BD
:100930006795B795F795E7959F5FC1F7FE2B880FF1
:0E094000911D9695879597F90895F894FFCF2D
:10094E00000000020000000067000000000001002F
:10095E000000A4D08243A4D0A4437BD492437BD482
:10096E0092430000C443A4D0A443A4D0A443A4D073
:10097E00A4437BD492430000C4433DAA824300C0EB
:10098E00124400C0124400800A4400800A4400C091
:10099E00124400C0124400C0124400C0124400A011
:1009AE002E4400A02E4400A02E4400A02E44008011
:1009BE000A4400800A4400800A4400800A440080F1
:1009CE000A4400800A4400800A440000F7430000F5
:1009DE00F7430000F7430000F7430000DC4300003C
:1009EE00DC430000F7430000F7430000F74300002C
:1009FE00F74300C0124400C0124400C0124400C0AD
:100A0E00124400A02E4400A02E4400A02E4400A0AC
:100A1E002E4466A64F4466A64F4400A02E4400A066
:100A2E002E4466A64F4466A64F4433F3764433F302
:100A3E00764433F3764433F3764400A02E4400A07C
:100A4E002E4400A02E4400A02E4433D3244433D38E
:0A0A5E00244400C0124400C01244FA
:00000001FF
