:100000000C9446000C9465000C9465000C946500FB
:100010000C9465000C9465000C9465000C946500CC
:100020000C9465000C9465000C9465000C946500BC
:100030000C9465000C94DE000C9465000C94650033
:100040000C9465000C9465000C9465000C9465009C
:100050000C9465000C9465000C9465000C9465008C
:100060000C9465000C9465000C9465000C9465007C
:100070000C9465000C9465000C9465000C9465006C
:100080000C9465000C9465000C94650011241FBE4F
:10009000CFEFD0E4DEBFCDBF11E0A0E0B1E0E2E7FA
:1000A000FAE000E00BBF02C007900D92A233B10747
:1000B000D9F721E0A2E3B1E001C01D92AF33B2074E
:1000C000E1F70E9475030C9437050C940000CF9360
:1000D000DF9300D01F92CDB7DEB789837B836A831D
:1000E00089818A3031F48A819B81BC018DE00E9434
:1000F000670080EC90E0FC018081882F90E08072A6
:100100009927892BB1F386EC90E02981FC012083AB
:1001100080E090E00F900F900F90DF91CF910895C5
:10012000CF93DF93CDB7DEB781E08093320100003B
:10013000DF91CF910895CF93DF93CDB7DEB781E8FC
:1001400090E02BE0FC01208388E890E02DE730E090
:10015000FC01318320838FE690E022E0FC012083C4
:1001600084E890E0FC011182108280910E01909150
:100170000F01A0911001B091110180933301909370
:100180003401A0933501B09336018FE590E02FE55F
:1001900030E0F90120812068FC0120830000DF911C
:1001A000CF910895CF93DF93CDB7DEB781E890E08C
:1001B000FC0110820000DF91CF9108951F920F92F1
:1001C00000905F000F92112400905B000F922F931C
:1001D0003F934F935F936F937F938F939F93AF93CF
:1001E000BF93EF93FF93CF93DF93CDB7DEB78091AB
:1001F000330190913401A0913501B09136010197FE
:10020000A109B1098093330190933401A093350182
:10021000B09336018091330190913401A091350162
:10022000B0913601892B8A2B8B2B91F40E94900080
:1002300080910E0190910F01A0911001B0911101D8
:100240008093330190933401A0933501B09336012C
:100250000000DF91CF91FF91EF91BF91AF919F91FE
:100260008F917F916F915F914F913F912F910F905F
:1002700000925B000F9000925F000F901F90189506
:10028000CF93DF9300D000D0CDB7DEB769837A83F8
:100290008B839C8389819A81AB81BC8180930E0181
:1002A00090930F01A0931001B093110180910E0162
:1002B00090910F01A0911001B09111018093330131
:1002C00090933401A0933501B093360100000F9054
:1002D0000F900F900F90DF91CF9108950F931F9380
:1002E000CF93DF9300D000D0CDB7DEB769837A8398
:1002F0008B839C838091390190913A01A0913B01BD
:10030000B0913C019C01AD0169817A818B819C8116
:100310000E94A303882309F477C020E030E0A901FC
:1003200069817A818B819C810E94A303882351F487
:1003300081E990E021E930E0F90120812870FC0199
:10034000208309C081E990E021E930E0F9012081B2
:100350002360FC01208328E539E344E75FE36981FA
:100360007A818B819C810E94A303882344F488E9CD
:1003700090E02FEF3FEFFC013183208334C020E079
:100380003CE24BEF56E469817A818B819C810E942B
:10039000C504181634F488E990E0FC01118210823B
:1003A00022C008E910E020E030E040E053E4698139
:1003B0007A818B819C810E94CA04DC01CB019C0163
:1003C000AD0160E074E284EF9AE40E94A803DC01CE
:1003D000CB01BC01CD010E941A04DC01CB010197C5
:1003E000F8019183808384E990E0FC0111821082FE
:1003F00089819A81AB81BC818093390190933A01C4
:10040000A0933B01B0933C0100000F900F900F9020
:100410000F90DF91CF911F910F910895CF93DF93AC
:10042000CDB7DEB780E990E020E4FC01208381E9CC
:1004300090E02BE0FC01208360E070E0CB010E94A3
:100440006E010000DF91CF910895CF93DF93CDB778
:10045000DEB780E990E0FC01108281E990E0FC01C8
:1004600010820000DF91CF910895CF93DF931F9208
:10047000CDB7DEB780E290E0FC0180818095877087
:10048000898380913D0190913E018230910561F117
:100490008330910528F4009779F00197A1F068C0A6
:1004A0008430910509F456C08430910508F441C0A8
:1004B000059709F456C05CC081E090E090933E013E
:1004C00080933D0155C08981813039F482E090E00C
:1004D00090933E0180933D014BC081E090E090936A
:1004E0003E0180933D0144C08981813039F483E02D
:1004F00090E090933E0180933D013AC08981823023
:1005000039F484E090E090933E0180933D0130C047
:100510008981843039F485E090E090933E018093A6
:100520003D0126C082E090E090933E0180933D0122
:100530001FC08981813039F482E090E090933E01C0
:1005400080933D0115C083E090E090933E0180933D
:100550003D010EC082E090E090933E0180933D010A
:1005600007C082E090E090933E0180933D0100003F
:1005700080913D0190913E018230910539F18330A7
:10058000910530F4009709F4AAC0019759F0A8C06A
:1005900084309105A9F18430910560F1059709F443
:1005A00066C09EC08091370190913801880F991FD5
:1005B000880F991F8E5E9E4FFC0180819181A281E0
:1005C000B381BC01CD010E946E018AC080913701C8
:1005D00090913801880F991F880F991F8E5E9E4F4A
:1005E000FC0180819181A281B381BC01CD010E9477
:1005F0006E0176C060E070E0CB010E946E0170C0B9
:1006000080913701909138010797ECF48091370180
:100610009091380101969093380180933701809131
:10062000370190913801880F991F880F991F8E5EAE
:100630009E4FFC0180819181A281B381BC01CD01DB
:100640000E946E014DC08091370190913801880F52
:10065000991F880F991F8E5E9E4FFC0180819181AA
:10066000A281B381BC01CD010E946E0139C080918D
:1006700037019091380118161906ECF48091370172
:1006800090913801019790933801809337018091C0
:10069000370190913801880F991F880F991F8E5E3E
:1006A0009E4FFC0180819181A281B381BC01CD016B
:1006B0000E946E0115C08091370190913801880F1A
:1006C000991F880F991F8E5E9E4FFC01808191813A
:1006D000A281B381BC01CD010E946E0101C0000066
:1006E00000000F90DF91CF910895CF93DF93CDB7A6
:1006F000DEB781E290E0FC01108282E290E02FEF11
:10070000FC01208384E290E02FEFFC01208385E24E
:1007100090E0FC01108264E670E080E090E00E94CE
:1007200040010E949B000E940E0210923E01109216
:100730003D010E9435020000809132018823E1F3DF
:1007400010923201F6CF0E94500408F481E008951F
:100750000E94BC030C948B040E94840458F00E94F5
:100760007D0440F029F45F3F29F00C94740451118A
:100770000C94BF040C947A040E949C0468F399239F
:10078000B1F3552391F3951B550BBB27AA2762178D
:100790007307840738F09F5F5F4F220F331F441F9A
:1007A000AA1FA9F335D00E2E3AF0E0E832D09150CE
:1007B0005040E695001CCAF72BD0FE2F29D0660FBB
:1007C000771F881FBB1F261737074807AB07B0E8FE
:1007D00009F0BB0B802DBF01FF2793585F4F3AF004
:1007E0009E3F510578F00C9474040C94BF045F3F55
:1007F000E4F3983ED4F3869577956795B795F7958A
:100800009F5FC9F7880F911D9695879597F9089571
:10081000E1E0660F771F881FBB1F6217730784070D
:10082000BA0720F0621B730B840BBA0BEE1F88F71C
:10083000E09508950E9421046894B1110C94BF04BE
:1008400008950E94A40488F09F5798F0B92F992723
:10085000B751B0F0E1F0660F771F881F991F1AF0AB
:10086000BA95C9F714C0B13091F00E94BE04B1E04E
:1008700008950C94BE04672F782F8827B85F39F04D
:10088000B93FCCF3869577956795B395D9F73EF444
:1008900090958095709561957F4F8F4F9F4F0895EC
:1008A000990F0008550FAA0BE0E8FEEF1616170681
:1008B000E807F907C0F012161306E407F50798F0E9
:1008C000621B730B840B950B39F40A2661F0232B02
:1008D000242B252B21F408950A2609F4A140A6957E
:1008E0008FEF811D811D089597F99F6780E870E063
:1008F00060E008959FEF80EC089500240A94161696
:10090000170618060906089500240A9412161306FD
:10091000140605060895092E0394000C11F488238B
:1009200052F0BB0F40F4BF2B11F460FF04C06F5FA7
:100930007F4F8F4F9F4F089557FD9058440F551F7D
:1009400059F05F3F71F04795880F97FB991F61F051
:100950009F3F79F087950895121613061406551FC8
:10096000F2CF4695F1DF08C0161617061806991F34
:10097000F1CF86957105610508940895E894BB2729
:1009800066277727CB0197F908950E94500408F451
:100990008FEF08950E94DD040C948B040E947D0467
:1009A00038F00E94840420F0952311F00C94740414
:1009B0000C947A0411240C94BF040E949C0470F3DC
:1009C000959FC1F3950F50E0551F629FF001729FF4
:1009D000BB27F00DB11D639FAA27F00DB11DAA1F03
:1009E000649F6627B00DA11D661F829F2227B00D50
:1009F000A11D621F739FB00DA11D621F839FA00DDB
:100A0000611D221F749F3327A00D611D231F849F2A
:100A1000600D211D822F762F6A2F11249F57504081
:100A20009AF0F1F088234AF0EE0FFF1FBB1F661FFC
:100A3000771F881F91505040A9F79E3F510580F0C5
:100A40000C9474040C94BF045F3FE4F3983ED4F319
:100A5000869577956795B795F795E7959F5FC1F769
:100A6000FE2B880F911D9695879597F90895F89418
:020A7000FFCFB6
:100A7200000000020000000067000000000001000A
:100A82000000A4D082437BD49243A4D0A443A4D038
:100A9200AE430000C4430000DC43A4F0F64300D0A0
:020AA20002440C
:00000001FF
